{
  "contractName": "TrezorMultiSig2of3",
  "abi": [
    {
      "constant": true,
      "inputs": [],
      "name": "unchainedMultisigVersionMajor",
      "outputs": [
        {
          "name": "",
          "type": "uint256"
        }
      ],
      "payable": false,
      "stateMutability": "view",
      "type": "function"
    },
    {
      "constant": true,
      "inputs": [],
      "name": "spendNonce",
      "outputs": [
        {
          "name": "",
          "type": "uint256"
        }
      ],
      "payable": false,
      "stateMutability": "view",
      "type": "function"
    },
    {
      "constant": true,
      "inputs": [],
      "name": "unchainedMultisigVersionMinor",
      "outputs": [
        {
          "name": "",
          "type": "uint256"
        }
      ],
      "payable": false,
      "stateMutability": "view",
      "type": "function"
    },
    {
      "inputs": [
        {
          "name": "owner1",
          "type": "address"
        },
        {
          "name": "owner2",
          "type": "address"
        },
        {
          "name": "owner3",
          "type": "address"
        }
      ],
      "payable": false,
      "stateMutability": "nonpayable",
      "type": "constructor"
    },
    {
      "payable": true,
      "stateMutability": "payable",
      "type": "fallback"
    },
    {
      "anonymous": false,
      "inputs": [
        {
          "indexed": false,
          "name": "new_balance",
          "type": "uint256"
        }
      ],
      "name": "Funded",
      "type": "event"
    },
    {
      "anonymous": false,
      "inputs": [
        {
          "indexed": false,
          "name": "to",
          "type": "address"
        },
        {
          "indexed": false,
          "name": "transfer",
          "type": "uint256"
        }
      ],
      "name": "Spent",
      "type": "event"
    },
    {
      "constant": true,
      "inputs": [
        {
          "name": "destination",
          "type": "address"
        },
        {
          "name": "value",
          "type": "uint256"
        }
      ],
      "name": "generateMessageToSign",
      "outputs": [
        {
          "name": "",
          "type": "bytes32"
        }
      ],
      "payable": false,
      "stateMutability": "view",
      "type": "function"
    },
    {
      "constant": false,
      "inputs": [
        {
          "name": "destination",
          "type": "address"
        },
        {
          "name": "value",
          "type": "uint256"
        },
        {
          "name": "wallet_type_1",
          "type": "uint8"
        },
        {
          "name": "v1",
          "type": "uint8"
        },
        {
          "name": "r1",
          "type": "bytes32"
        },
        {
          "name": "s1",
          "type": "bytes32"
        },
        {
          "name": "wallet_type_2",
          "type": "uint8"
        },
        {
          "name": "v2",
          "type": "uint8"
        },
        {
          "name": "r2",
          "type": "bytes32"
        },
        {
          "name": "s2",
          "type": "bytes32"
        }
      ],
      "name": "spend",
      "outputs": [],
      "payable": false,
      "stateMutability": "nonpayable",
      "type": "function"
    }
  ],
  "bytecode": "0x608060405260006001556001600255600060035534801561001f57600080fd5b50604051606080610f8783398101806040528101908080519060200190929190805190602001909291908051906020019092919050505060008090508073ffffffffffffffffffffffffffffffffffffffff168473ffffffffffffffffffffffffffffffffffffffff161415151561009657600080fd5b8073ffffffffffffffffffffffffffffffffffffffff168373ffffffffffffffffffffffffffffffffffffffff16141515156100d157600080fd5b8073ffffffffffffffffffffffffffffffffffffffff168273ffffffffffffffffffffffffffffffffffffffff161415151561010c57600080fd5b8273ffffffffffffffffffffffffffffffffffffffff168473ffffffffffffffffffffffffffffffffffffffff161415151561014757600080fd5b8173ffffffffffffffffffffffffffffffffffffffff168373ffffffffffffffffffffffffffffffffffffffff161415151561018257600080fd5b8173ffffffffffffffffffffffffffffffffffffffff168473ffffffffffffffffffffffffffffffffffffffff16141515156101bd57600080fd5b60016000808673ffffffffffffffffffffffffffffffffffffffff1673ffffffffffffffffffffffffffffffffffffffff16815260200190815260200160002060006101000a81548160ff02191690831515021790555060016000808573ffffffffffffffffffffffffffffffffffffffff1673ffffffffffffffffffffffffffffffffffffffff16815260200190815260200160002060006101000a81548160ff02191690831515021790555060016000808473ffffffffffffffffffffffffffffffffffffffff1673ffffffffffffffffffffffffffffffffffffffff16815260200190815260200160002060006101000a81548160ff02191690831515021790555050505050610cb2806102d56000396000f30060806040526004361061006d576000357c0100000000000000000000000000000000000000000000000000000000900463ffffffff16806323eb861c146100bd578063357dbf02146100e8578063843b1a09146101a1578063a7dd7a59146101cc578063d0590bad146101f7575b7fc4c14883ae9fd8e26d5d59e3485ed29fd126d781d7e498a4ca5c54c8268e49363073ffffffffffffffffffffffffffffffffffffffff16316040518082815260200191505060405180910390a1005b3480156100c957600080fd5b506100d2610260565b6040518082815260200191505060405180910390f35b3480156100f457600080fd5b5061019f600480360381019080803573ffffffffffffffffffffffffffffffffffffffff16906020019092919080359060200190929190803560ff169060200190929190803560ff16906020019092919080356000191690602001909291908035600019169060200190929190803560ff169060200190929190803560ff16906020019092919080356000191690602001909291908035600019169060200190929190505050610266565b005b3480156101ad57600080fd5b506101b6610398565b6040518082815260200191505060405180910390f35b3480156101d857600080fd5b506101e161039e565b6040518082815260200191505060405180910390f35b34801561020357600080fd5b50610242600480360381019080803573ffffffffffffffffffffffffffffffffffffffff169060200190929190803590602001909291905050506103a4565b60405180826000191660001916815260200191505060405180910390f35b60025481565b883073ffffffffffffffffffffffffffffffffffffffff16311015151561028c57600080fd5b883073ffffffffffffffffffffffffffffffffffffffff1631101515156102b257600080fd5b6102c48a8a8a8a8a8a8a8a8a8a610494565b15156102cf57600080fd5b60018054016001819055508973ffffffffffffffffffffffffffffffffffffffff166108fc8a9081150290604051600060405180830381858888f19350505050158015610320573d6000803e3d6000fd5b507fd3eec71143c45f28685b24760ea218d476917aa0ac0392a55e5304cef40bd2b68a8a604051808373ffffffffffffffffffffffffffffffffffffffff1673ffffffffffffffffffffffffffffffffffffffff1681526020018281526020019250505060405180910390a150505050505050505050565b60015481565b60035481565b6000803073ffffffffffffffffffffffffffffffffffffffff168473ffffffffffffffffffffffffffffffffffffffff16141515156103e257600080fd5b600154308486604051808581526020018473ffffffffffffffffffffffffffffffffffffffff1673ffffffffffffffffffffffffffffffffffffffff166c010000000000000000000000000281526014018381526020018273ffffffffffffffffffffffffffffffffffffffff1673ffffffffffffffffffffffffffffffffffffffff166c01000000000000000000000000028152601401945050505050604051809103902090508091505092915050565b60008060008060006104a78f8f8f610608565b9350600092508860ff168d60ff1614156104c3578392506104d1565b6104ce8f8f8b610608565b92505b600184601b8e018d8d604051600081526020016040526040518085600019166000191681526020018460ff1660ff1681526020018360001916600019168152602001826000191660001916815260200194505050505060206040516020810390808403906000865af115801561054b573d6000803e3d6000fd5b505050602060405103519150600183601b8a018989604051600081526020016040526040518085600019166000191681526020018460ff1660ff1681526020018360001916600019168152602001826000191660001916815260200194505050505060206040516020810390808403906000865af11580156105d1573d6000803e3d6000fd5b5050506020604051035190506105e782826108a9565b15156105f257600080fd5b60019450505050509a9950505050505050505050565b60008060608061061887876103a4565b92506106238361099e565b91506040805190810160405280601a81526020017f19457468657265756d205369676e6564204d6573736167653a0a000000000000815250905060018560ff161415610797578082517f010000000000000000000000000000000000000000000000000000000000000002836040518084805190602001908083835b6020831015156106c4578051825260208201915060208101905060208303925061069f565b6001836020036101000a038019825116818451168082178552505050505050905001837effffffffffffffffffffffffffffffffffffffffffffffffffffffffffffff19167effffffffffffffffffffffffffffffffffffffffffffffffffffffffffffff1916815260010182805190602001908083835b602083101515610761578051825260208201915060208101905060208303925061073c565b6001836020036101000a03801982511681845116808217855250505050505090500193505050506040518091039020935061089f565b60028560ff16141561089a576040805190810160405280601c81526020017f19457468657265756d205369676e6564204d6573736167653a0a363400000000815250905080826040518083805190602001908083835b60208310151561081257805182526020820191506020810190506020830392506107ed565b6001836020036101000a03801982511681845116808217855250505050505090500182805190602001908083835b6020831015156108655780518252602082019150602081019050602083039250610840565b6001836020036101000a038019825116818451168082178552505050505050905001925050506040518091039020935061089f565b600080fd5b5050509392505050565b60008173ffffffffffffffffffffffffffffffffffffffff168373ffffffffffffffffffffffffffffffffffffffff16141515156108e657600080fd5b6000808473ffffffffffffffffffffffffffffffffffffffff1673ffffffffffffffffffffffffffffffffffffffff16815260200190815260200160002060009054906101000a900460ff16151561093d57600080fd5b6000808373ffffffffffffffffffffffffffffffffffffffff1673ffffffffffffffffffffffffffffffffffffffff16815260200190815260200160002060009054906101000a900460ff16151561099457600080fd5b6001905092915050565b606080600080600080604080519080825280601f01601f1916602001820160405280156109da5781602001602082028038833980820191505090505b509450600093505b6020841015610b895786846020811015156109f957fe5b1a7f01000000000000000000000000000000000000000000000000000000000000000292506010837f0100000000000000000000000000000000000000000000000000000000000000900460ff16811515610a5057fe5b047f0100000000000000000000000000000000000000000000000000000000000000029150817f01000000000000000000000000000000000000000000000000000000000000009004601002837f01000000000000000000000000000000000000000000000000000000000000009004037f0100000000000000000000000000000000000000000000000000000000000000029050610aee82610b96565b8585600202815181101515610aff57fe5b9060200101907effffffffffffffffffffffffffffffffffffffffffffffffffffffffffffff1916908160001a905350610b3881610b96565b8560018660020201815181101515610b4c57fe5b9060200101907effffffffffffffffffffffffffffffffffffffffffffffffffffffffffffff1916908160001a90535083806001019450506109e2565b8495505050505050919050565b6000600a7f010000000000000000000000000000000000000000000000000000000000000002827effffffffffffffffffffffffffffffffffffffffffffffffffffffffffffff19161015610c35576030827f01000000000000000000000000000000000000000000000000000000000000009004017f0100000000000000000000000000000000000000000000000000000000000000029050610c81565b6057827f01000000000000000000000000000000000000000000000000000000000000009004017f01000000000000000000000000000000000000000000000000000000000000000290505b9190505600a165627a7a72305820ddc89a6896f7f84435b7b1bb639926de83dd1d793910c7da4ba4e2c33c46f3bd0029",
  "source": "pragma solidity ^0.4.24;\n\n// A 2/3 multisig contract which is compatible with Trezor-signed messages.\n//\n// To authorize a spend, two signtures must be provided by 2 of the 3 owners.\n// To generate the message to be signed, provide the destination address and\n// spend amount (in wei) to the generateMessageToSignmethod.\n// The signatures must be provided as the (v, r, s) hex-encoded coordinates.\n// The S coordinate must be 0x00 or 0x01 corresponding to 0x1b and 0x1c, respectively.\n// See the test file for example inputs.\n//\n// If you use other software than the provided dApp or scripts to sign the message,\n// verify that the message shown by the trezor device matches the generated message in hex.\n//\n// WARNING: The generated message is only valid until the next spend is executed.\n//          after that, a new message will need to be calculated.\n//\n// WARNING: The signing algorithm Trezor uses is different than that\n// of Ledger, Geth, Etc. This contract is for Trezor managed private\n// keys ONLY.\n//\n// ADDITIONAL WARNING: This contract is **NOT** ERC20 compatible.\n// Tokens sent to this contract will be lost forever.\n//\ncontract TrezorMultiSig2of3 {\n\n  // The 3 addresses which control the funds in this contract.  The\n  // owners of 2 of these addresses will need to both sign a message\n  // allowing the funds in this contract to be spent.\n  mapping(address => bool) private owners;\n\n  // The contract nonce is not accessible to the contract so we\n  // implement a nonce-like variable for replay protection.\n  uint256 public spendNonce = 0;\n\n  // Contract Versioning\n  uint256 public unchainedMultisigVersionMajor = 1;\n  uint256 public unchainedMultisigVersionMinor = 0;\n\n  // An event sent when funds are received.\n  event Funded(uint new_balance);\n\n  // An event sent when a spend is triggered to the given address.\n  event Spent(address to, uint transfer);\n\n  // Instantiate a new Trezor Multisig 2 of 3 contract owned by the\n  // three given addresses\n  constructor(address owner1, address owner2, address owner3) public {\n    address zeroAddress = 0x0;\n\n    require(owner1 != zeroAddress);\n    require(owner2 != zeroAddress);\n    require(owner3 != zeroAddress);\n\n    require(owner1 != owner2);\n    require(owner2 != owner3);\n    require(owner1 != owner3);\n\n    owners[owner1] = true;\n    owners[owner2] = true;\n    owners[owner3] = true;\n  }\n\n  // The fallback function for this contract.\n  function() public payable {\n    emit Funded(address(this).balance);\n  }\n\n  // Generates the message to sign given the output destination address and amount.\n  // includes this contract's address and a nonce for replay protection.\n  // One option to  independently verify: https://leventozturk.com/engineering/sha3/ and select keccak\n  function generateMessageToSign(address destination, uint256 value) public view returns (bytes32) {\n    require(destination != address(this));\n    bytes32 message = keccak256(spendNonce, this, value, destination);\n    return message;\n  }\n\n  // Send the given amount of ETH to the given destination using\n  // the two triplets (v1, r1, s1) and (v2, r2, s2) as signatures.\n  // s1 and s2 should be 0x00 or 0x01 corresponding to 0x1b and 0x1c respectively.\n  function spend(address destination, uint256 value, uint8 wallet_type_1, uint8 v1, bytes32 r1, bytes32 s1, uint8 wallet_type_2, uint8 v2, bytes32 r2, bytes32 s2) public {\n    // This require is handled by generateMessageToSign()\n    // require(destination != address(this));\n    require(this.balance >= value);\n    require(address(this).balance >= value);\n    require(_validSignature(destination, value, wallet_type_1, v1, r1, s1, wallet_type_2, v2, r2, s2));\n    spendNonce = spendNonce + 1;\n    destination.transfer(value);\n    emit Spent(destination, value);\n  }\n\n  // Confirm that the two signature triplets (v1, r1, s1) and (v2, r2, s2)\n  // both authorize a spend of this contract's funds to the given\n  // destination address.\n  function _validSignature(address destination, uint256 value, uint8 wallet_type_1, uint8 v1, bytes32 r1, bytes32 s1, uint8 wallet_type_2, uint8 v2, bytes32 r2, bytes32 s2) private constant returns (bool) {\n    bytes32 message1 = _messageToRecover(destination, value, wallet_type_1);\n    bytes32 message2 = \"\";\n    if (wallet_type_1 == wallet_type_2) {\n      message2 = message1;\n    } else {\n      message2 = _messageToRecover(destination, value, wallet_type_2);\n    }\n    address addr1   = ecrecover(message1, v1+27, r1, s1);\n    address addr2   = ecrecover(message2, v2+27, r2, s2);\n    require(_distinctOwners(addr1, addr2));\n\n    return true;\n  }\n\n  // Generate the the unsigned message (in bytes32) that each owner's\n  // Trezor would have signed for the given destination and amount.\n  //\n  // The generated message from generateMessageToSign is converted to\n  // ascii when signed by a trezor.\n  //\n  // The required Trezor signing prefix, the length of this\n  // unsigned message, and the unsigned ascii message itself are\n  // then concatenated and hashed with keccak256.\n  function _messageToRecover(address destination, uint256 value, uint8 wallet_type) private constant returns (bytes32) {\n    bytes32 hashedUnsignedMessage = generateMessageToSign(destination, value);\n    bytes memory unsignedMessageBytes = _hashToAscii(hashedUnsignedMessage);\n    bytes memory prefix = \"\\x19Ethereum Signed Message:\\n\";\n    if (wallet_type == 1) {\n        // TREZOR\n        return keccak256(prefix,bytes1(unsignedMessageBytes.length),unsignedMessageBytes);\n    } else if (wallet_type == 2) {\n        // LEDGER\n        prefix = \"\\x19Ethereum Signed Message:\\n64\";\n        return keccak256(prefix,unsignedMessageBytes);\n    } else {\n        revert();\n    }\n  }\n\n  // Confirm the pair of addresses as two distinct owners of this contract.\n  function _distinctOwners(address addr1, address addr2) private view returns (bool) {\n    // Check that both addresses are different\n    require(addr1 != addr2);\n    // Check that both addresses are owners\n    require(owners[addr1]);\n    require(owners[addr2]);\n    return true;\n  }\n\n  // Construct the byte representation of the ascii-encoded\n  // hashed message written in hex.\n  function _hashToAscii(bytes32 hash) private pure returns (bytes) {\n    bytes memory s = new bytes(64);\n    for (uint i = 0; i < 32; i++) {\n      byte  b = hash[i];\n      byte hi = byte(uint8(b) / 16);\n      byte lo = byte(uint8(b) - 16 * uint8(hi));\n      s[2*i] = _char(hi);\n      s[2*i+1] = _char(lo);\n    }\n    return s;\n  }\n\n  // Convert from byte to ASCII of 0-f\n  // http://www.unicode.org/charts/PDF/U0000.pdf\n  function _char(byte b) private pure returns (byte c) {\n    if (b < 10) return byte(uint8(b) + 0x30);\n    else return byte(uint8(b) + 0x57);\n  }\n}\n",
  "sourcePath": "/Users/destry/code/destrys/ethereum-multisig/contracts/TrezorMultiSig2of3.sol",
  "compiler": {
    "name": "solc",
    "version": "0.4.24+commit.e67f0147.Emscripten.clang"
  },
  "schemaVersion": "2.0.1",
  "updatedAt": "2018-07-06T11:10:16.381Z"
}